{
  "address": "0xe7f1725E7734CE288F8367e1Bb143E90bb3F0512",
  "abi": [
    {
      "inputs": [],
      "name": "increment",
      "outputs": [],
      "stateMutability": "nonpayable",
      "type": "function"
    },
    {
      "inputs": [],
      "name": "number",
      "outputs": [
        {
          "internalType": "uint256",
          "name": "",
          "type": "uint256"
        }
      ],
      "stateMutability": "view",
      "type": "function"
    },
    {
      "inputs": [
        {
          "internalType": "uint256",
          "name": "newNumber",
          "type": "uint256"
        }
      ],
      "name": "setNumber",
      "outputs": [],
      "stateMutability": "nonpayable",
      "type": "function"
    }
  ],
  "transactionHash": "0x489e5d7db5cdf7096773f4b570ac2b195963d2b83676e399ab526fb4e7ceeaf6",
  "args": [],
  "numDeployments": 1,
  "solcInputHash": "b91d454acdde5fffc5abec994cd4e289",
  "bytecode": "0x608060405234801561001057600080fd5b506101f2806100206000396000f3fe608060405234801561001057600080fd5b50600436106100415760003560e01c80633fb5c1cb146100465780638381f58a14610062578063d09de08a14610080575b600080fd5b610060600480360381019061005b91906100ee565b61008a565b005b61006a610094565b604051610077919061012a565b60405180910390f35b61008861009a565b005b8060008190555050565b60005481565b6000808154809291906100ac90610174565b9190505550565b600080fd5b6000819050919050565b6100cb816100b8565b81146100d657600080fd5b50565b6000813590506100e8816100c2565b92915050565b600060208284031215610104576101036100b3565b5b6000610112848285016100d9565b91505092915050565b610124816100b8565b82525050565b600060208201905061013f600083018461011b565b92915050565b7f4e487b7100000000000000000000000000000000000000000000000000000000600052601160045260246000fd5b600061017f826100b8565b91507fffffffffffffffffffffffffffffffffffffffffffffffffffffffffffffffff82036101b1576101b0610145565b5b60018201905091905056fea26469706673582212208e5398c1ad0015472ebfa7bf45967066f647761c08e94d4d977633256711197b64736f6c63430008120033",
  "devdoc": {
    "kind": "dev",
    "methods": {},
    "version": 1
  },
  "userdoc": {
    "kind": "user",
    "methods": {},
    "version": 1
  },
  "storageLayout": {
    "storage": [
      {
        "astId": 8067,
        "contract": "src/Counter.sol:Counter",
        "label": "number",
        "offset": 0,
        "slot": "0",
        "type": "t_uint256"
      }
    ],
    "types": {
      "t_uint256": {
        "encoding": "inplace",
        "label": "uint256",
        "numberOfBytes": "32"
      }
    }
  }
}